:100000000C9422050C943F050C943F050C94D02DC4
:100010000C943F050C943F050C943F050C943F0550
:100020000C943F050C943F050C9491190C944D19B8
:100030000C9427270C943F050C943F050C943F0526
:100040000C943F050C943F050C943F050C943F0520
:100050000C943F050C946A1A0C943F050C943F05D0
:100060000C943F050C943F050C943F050C943F0500
:100070000C943F050C943F050C943F050C943F05F0
:100080000C943F050C943F050C943F050C943F05E0
:100090000C943F050C943F050C943F050C943F05D0
:1000A0000C943F050C943F050C943F052900140067
:1000B0001A000800150017002B00040016000700A6
:1000C00009000A00E0001D001B00060019000500E1
:1000D0000000E200E30091222C4290242D00130046
:1000E00012000C0018001C00340033000F000E003A
:1000F0000D000B008700380037003600100011009B
:10010000000046000100010028432A000100010010
:1001100001000100010001000100010001000100D7
:1001200001000100010001000100010001000100C7
:1001300000000100010001000100010001000100B8
:10014000010001000100010001000100D200077E52
:10015000D100010001000100D500D300D40001004E
:1001600000000100010001000100010001001E0269
:10017000340220022102220201001E001F00200082
:10018000210022003A003B003C003D003E003F00C1
:1001900000000100010001000100010035003102F2
:1001A0003502230234002402010027002600250026
:1001B0002400230045004400430042004100400069
:1001C0000000010001000100010001002078010091
:1001D0002400250026002F00027E010021002200BD
:1001E00023002602037E01001E001F0020002F02B4
:1001F0000000270037000100010001002E001F024F
:100200004C0052002A00300025022E024F005100FF
:10021000500027022D023802370236020100300258
:1002200000000100010001000100010000DA02816C
:10023000FFD9F1DB20A4A62EAF00A0C0D30000A1FF
:10024000C8D30000AED580A81F408D1420006432B2
:100250001400010101010101010101020202020277
:10026000020202020303030303030303040404045E
:100270000404040505050505060606060607070726
:10028000070708080808090909090A0A0A0B0B0BDD
:100290000C0C0C0D0D0D0E0E0E0F0F0F101011117A
:1002A00011121213131414151516161717181819FE
:1002B000191A1A1B1B1C1D1D1E1E1F202021222265
:1002C000232424252626272829292A2B2C2D2D2EA8
:1002D0002F30313232333435363738393A3B3C3DC2
:1002E0003E3F404142434445464748494A4C4D4EB3
:1002F0004F50515354555658595A5B5D5E5F616279
:1003000064656668696B6C6D6F7072737577787A07
:100310007B7D7E8082838587888A8C8E8F91939562
:1003200096989A9C9EA0A2A3A5A7A9ABADAFB1B386
:10033000B5B7BABCBEC0C2C4C6C9CBCDCFD1D4D666
:10034000D8DBDDDFE2E4E7E9EBEEF0F3F5F8FAFD08
:10035000FF00AF00AE6162636465666768696A6BDF
:100360006C6D6E6F707172737475767778797A319F
:10037000323334353637383930524542545F2D3DAB
:100380005B5D5C233B27602C2E2F20202700204B19
:1003900000202043004B6579203A20205200202085
:1003A000440030302020530020202020204350499A
:1003B0000042616C6C3A004C617965723A00808150
:1003C00082838485868788898A8B8C8D8E8F909195
:1003D000929394A0A1A2A3A4A5A6A7A8A9AAABACF6
:1003E000ADAEAFB0B1B2B3B4C0C1C2C3C4C5C6C76D
:1003F000C8C9CACBCCCDCECFD0D1D2D3D400050181
:100400000902A10185020901A100050919012908B4
:100410001500250195087501810205010930093192
:100420001581257F95027508810609381581257F7C
:10043000950175088106050C0A38021581257F95FE
:100440000175088106C0C005010906A1010507194B
:10045000E029E715002501950875018102950175D0
:100460000881010507190029FF150026FF009506E0
:100470007508810005081901290515002501950554
:1004800075019102950175039101C009023B0002BB
:100490000100A0FA09040000010301010009211173
:1004A000010001224400070581030800010904013D
:1004B0000001030000000921110100012249000789
:1004C00005820320000112010002000000085759B4
:1004D000000400010102000114034B0065007900D3
:1004E000620061006C006C003400340000001003F6
:1004F00059006F0077006B00650065007300000015
:10050000040309040000000000003E5B4F5B3E0056
:100510003E6B4F6B3E001C3E7C3E1C00183C7E3CFC
:1005200018001C577D571C001C5E7F5E1C000018C5
:100530003C180000FFE7C3E7FF0000182418000084
:10054000FFE7DBE7FF0030483A060E00262979294D
:100550002600407F05050700407F05253F005A3CE7
:10056000E73C5A007F3E1C1C0800081C1C3E7F0014
:1005700014227F2214005F5F005F5F0006097F0185
:100580007F00006689956A0060606060600094A2E8
:10059000FFA2940008047E04080010207E201000B2
:1005A00008082A1C0800081C2A0808001E10101041
:1005B00010000C1E0C1E0C0030383E383000060EA9
:1005C0003E0E060000000000000000005F0000007A
:1005D000000700070000147F147F1400242A7F2ADC
:1005E00012002313086462003649562050000008A8
:1005F00007030000001C224100000041221C0000F3
:100600002A1C7F1C2A0008083E0808000080703061
:1006100000000808080808000000606000002010C2
:10062000080402003E5149453E0000427F40000060
:100630007249494946002141494D33001814127F3F
:1006400010002745454539003C4A494931004121C0
:1006500011090700364949493600464949291E0013
:1006600000001400000000403400000000081422C4
:100670004100141414141400004122140800020153
:10068000590906003E415D594E007C1211127C0052
:100690007F49494936003E41414122007F41414165
:1006A0003E007F49494941007F09090901003E4157
:1006B000415173007F0808087F0000417F4100001E
:1006C0002040413F01007F08142241007F4040400C
:1006D00040007F021C027F007F0408107F003E4123
:1006E00041413E007F09090906003E4151215E005B
:1006F0007F091929460026494949320003017F0133
:1007000003003F4040403F001F2040201F003F406B
:1007100038403F00631408146300030478040300A6
:100720006159494D4300007F4141410002040810D6
:100730002000004141417F000402010204004040CA
:100740004040400000030708000020545478400057
:100750007F2844443800384444442800384444281E
:100760007F0038545454180000087E0902001824F1
:10077000241C78007F080404780000447D400000B9
:100780002040403D00007F102844000000417F4091
:1007900000007C04780478007C0804047800384465
:1007A000444438007C1824241800182424187C00A1
:1007B0007C080404080048545454240004043F44B2
:1007C00024003C4040207C001C2040201C003C4079
:1007D00030403C004428102844004C9090907C000D
:1007E0004464544C44000008364100000000770087
:1007F00000000041360800000201020402003C260D
:1008000023263C0000000000000000000000000063
:10081000000000000000000000000000C0F0F88CA4
:1008200086C6E7FFFFFFFFFFFFFEFCFCF8E080004D
:100830000000F0F0F00000C0E0F070700000000078
:1008400000000000000000000000000000000000A8
:100850000000F8F8F80000000000000000000000B0
:100860000000000000000000F8F8F80000F8F8F8B8
:100870000000000000000000000000000000000078
:100880000000E0F0F0F0E0ECEEF7F37020007C7C8C
:100890007C7E007E7E7E7F7F7F000080C0E07E5B6E
:1008A0004F5BFEC00000C000DCD7DEDEDED7DC0020
:1008B000C000000000000000000000000000000078
:1008C0000000000000000000000000000000000028
:1008D000000000000080E07078686C64C7C7C7C77C
:1008E000C7C7E73F1F0F3FFFFFFFFFFFFF3F0F009F
:1008F0000000FFFFFF1E3FFFF3E1800000F8FCFE59
:100900003636363EBCB8000E3EFEF080F0FE3E0E9F
:100910000000FFFFFF060606FEFEFC7000E6F6F68E
:100920003636FEFEFC000000FFFFFF0000FFFFFF69
:1009300000000000000000000000000000000000B7
:1009400000000F1F3F7F7F7F7F7F3F1E0C001F1F18
:100950001F3F003F3F3F7F7F7F00307B7F7830200D
:100960002030787F3B0003000F7F0F0F0F7F0F00B9
:100970000300000000000000000000000000000074
:100980000000000000000000000000000000000067
:10099000000000003C7F6360E0C0C0C0C0C0C0C0B9
:1009A000C0FFFFC06030180F030303010000000008
:1009B000000003030300000003030303000103031B
:1009C000030303030301007070393F1F0701000098
:1009D00000000103030303030303010000010303F9
:1009E00003030303010000000303030000030303E8
:1009F00000000000000000000000000000000000F7
:100A000000000000000000000000000000000000E6
:100A100000000000000000000000000000000000D6
:100A200000000000000000000000000000000000C6
:100A300000000000000000000000000000000000B6
:100A40000000000011241FBECFEFDAE0DEBFCDBFF3
:100A500011E0A0E0B1E0E8EBF0E602C005900D92F5
:100A6000A03FB107D9F726E0A0EFB1E001C01D9289
:100A7000A835B207E1F70E944E270C9425300C945C
:100A80000000482F209120049091E70357E029139C
:100A900002C080E0089530E0529FF001539FF00DB6
:100AA0001124E851FC4F8181681306C080814813EE
:100AB00003C085818111EECF2F5F3F4F2770E7CFB5
:100AC000E8EDF0E080818E7F80831092E20010924A
:100AD000DA001092E100A0EEB0E08C9181608C937E
:100AE00080818F77808319BCA7EDB0E08C918E7FD9
:100AF0008C9380818F7E80831092CF030895209104
:100B0000E4003091E50095E6A9012091EC00822FE8
:100B1000817020FF06C08091E80080FF06C080E061
:100B200008952091E80022FD1AC08091DD038823FA
:100B300089F0853089F08091EB0085FD0FC0209110
:100B4000E4003091E50042175307F9F29150E1F6C5
:100B500084E0089582E0089583E0089581E0089597
:100B60008091DF0387FF13C08091E80082FF06C0F9
:100B70008091E8008B778093E80004C08091DD03CA
:100B80008111F2CF08958091DD038823D9F38091FC
:100B9000E80080FFF8CF8091E8008E77ECCF982FA7
:100BA0009093E900242F762F50E0891731F070914F
:100BB000EC002091ED005091F00021FD07C09F5FF7
:100BC000973071F78093E90081E008953091EB0050
:100BD0003E7F3093EB003091ED003D7F3093ED0090
:100BE0003091EB0031603093EB007093EC00209378
:100BF000ED005093F0002091EE0027FDE0CF80E063
:100C00000895B0E0A0E0E7E0F6E00C940A2FC8ED0C
:100C1000D0E088818F7E8883E7EDF0E0808181607D
:100C2000808384E082BF81E08093CF0388818E7FC0
:100C3000888302EE10E0F80110821092DA0081EE53
:100C4000C82ED12CF601108288818F778883888105
:100C50008068888388818F7D888319BC1092DD032A
:100C60001092DE031092DC031092DB0390EEE92E6B
:100C7000F12CF70180818B7F80838881816088835C
:100C800042E060E080E00E94CF05F60180818E7F27
:100C90008083F80180818160808380818860808387
:100CA000F70180818E7F8083888180618883CDB7C2
:100CB000DEB7E8E00C94262FFC018091E5039091CB
:100CC000E60386179707A0F06115710529F4909146
:100CD000E8009E779093E80090E06115710551F46B
:100CE000911108C08091E80082FF34C080E008952F
:100CF000BC01F2CF8091DD038823C1F18530C1F1C1
:100D00008091E80083FD30C08091E80082FDEACF49
:100D10008091E80080FFE1CF8091F3002091F20004
:100D2000382F6115710519F02830310558F091E020
:100D30002830310509F090E02091E8002E772093CB
:100D4000E800CBCF81918093F100615071092F5F52
:100D50003F4FE7CF8091DD03882341F0853041F09C
:100D60008091E80083FFBECF81E0089582E008957E
:100D700083E00895089508958091D20308952FB7D0
:100D8000F8946091CB037091CC038091CD03909146
:100D9000CE032FBF08959C01FC0132969FEF80E0A7
:100DA0004191461751F09F3F19F4411101C0982F0E
:100DB0008F5F8630A9F79F3F09F40895290F311DF1
:100DC00097FD3A95F90162830895FC01680F791F38
:100DD0008FEF91E32191822728E030E087FF09C05F
:100DE000880F892721503109C9F7E617F70791F7CE
:100DF0000895880FF7CFFA01811101C0FB01099511
:100E00000895E6EEF2E01182828184608283089583
:100E100080912104982F9E7F61F48170826080937D
:100E2000210480912404873918F086E980932404F2
:100E300008958031B0F381708E60F1CFAF92BF9290
:100E4000DF92EF92FF920F931F93CF93DF93082FC0
:100E5000162FE901E42FF0E0EF5AFD4F611110C0A9
:100E6000E4915E2F4E2F4983E8835A83DF91CF911F
:100E70001F910F91FF90EF90DF90BF90AF9008957A
:100E8000E62EF12C4491D42EE42FF0E026E0829F50
:100E9000C00111242FEF30E0B9010E94EC2E802F09
:100EA00090E0880F991F55E5569FD001579FB00DD0
:100EB00011248A1B9B0B982F990F890F5901AE188B
:100EC000BF08AE9ED001AF9EB00DBE9EB00D1124E6
:100ED0005B2F189F80011124012F11275901A01A9F
:100EE000B10AAE9E8001AF9E100DBE9E100D112462
:100EF0005901A81AB108AE9CC001AF9C900DBE9CD0
:100F0000900D1124892F9927281B390B2E9FC00182
:100F10002F9F900D3E9F900D1124E92F6230710597
:100F2000A1F050F46115710509F49DCF6130710590
:100F300081F0EB2F512F97CF6430710569F080F06D
:100F40006630710509F48FCFF4CFE42F4B2F592F62
:100F50008ACFE42F412F87CFEB2F542F492F83CFF8
:100F60004B2F5D2DE12F7FCF90916C01882341F0B5
:100F70009F5F90936C01109269011092680108952F
:100F80009150F7CFE1E6F1E0828591E089278287F1
:100F900010861782089580916A01811114C0809192
:100FA0006C01811110C080916B0181110CC0909176
:100FB000DF0296959695969581E0209162019213B5
:100FC00080E08170089581E0FCCFCF93DF93E9E268
:100FD000F4E083819481A581B681E90188839983B6
:100FE000AA83BB831482138216821582DF91CF916C
:100FF000089580E0089563E070E08DE492E00E943F
:10100000E50690914C02891318C0E0914D02EB3037
:10101000A4F488E0E802F0011124EF5FFE4F06809F
:10102000F781E02D309749F020E732E040914F0200
:1010300060E572E080914E0209950895E1E0F1E0EB
:10104000A8E3B2E056968C91569780A757968C915C
:1010500083AF0895F894E82FE295EF70F0E031A1A6
:10106000282F2F7081E090E001C0880F2A95EAF7C1
:10107000982F9095932391A392A1892B82A3789482
:1010800008959091AF0292FF10C041E0282F247183
:10109000243009F040E031E0282F2871283009F091
:1010A00030E0431711F02CE0822793FF10C041E09D
:1010B000282F2471243109F040E031E0282F2871D5
:1010C000283109F030E0431711F02CE082273091ED
:1010D000B00230FF10C051E0282F2171213009F0FB
:1010E00050E041E0282F2871283009F040E05417E3
:1010F00011F029E0822731FF10C041E0282F217133
:10110000213109F040E031E0282F2871283109F021
:1011100030E0431711F029E0822794FD877E08957F
:1011200082389105B9F1B0F48133910509F47DC09D
:1011300048F48932910509F46DC08A32910509F4A9
:101140007BC008958533910509F45FC0893391050B
:1011500009F10895833E9105D9F138F4803E910557
:1011600029F1823E910579F10895863E9105D9F1E4
:10117000873E910509F43EC0843E910541F52091DA
:10118000B00221FF24C08091AF0284FD19C087EE18
:1011900090E008952091AF02237009F05AC0209189
:1011A000B00223FF14C089E290E008952091AF02BD
:1011B00020FD38C03091B00230FF09C024FF43C089
:1011C00090E080E008952091AF0222FDF7CF0895CE
:1011D0002091AF0222FD3AC03091B00230FD39C0FB
:1011E00024FFF5CFEDCF2091AF0223FFF0CF24FDF8
:1011F000E7CFCDCF2091AF0223FD2EC03091B002BA
:1012000031FFEECF84EE90E008952091AF0225FFEC
:10121000DECFC9CF2091AF0225FD21C02091B002C1
:1012200023FFD5CF89E390E0D2CF2091AF0226FFF4
:10123000CECF8AE290E008952091AF0226FFC7CF7B
:1012400081E390E0089583EE90E0089582EE90E0CF
:10125000089580EE90E0089586EE90E0089585E38D
:1012600090E00895972F7830B8F46630A8F4843071
:10127000B0F470E026E0929F600D711D1124FB0117
:1012800090E3899FE00DF11D1124EE0FFF1FE4553F
:10129000FF4F85919491089580E090E0089581E05A
:1012A000FCCF1F93CF93DF930E949008EC01C115F0
:1012B00082E5D80708F03FC0C11590E5D90708F0CE
:1012C000C2C0C83ED105C0F4C03ED10580F4C53AC5
:1012D000D10548F4C430D10550F4C130D10539F0FE
:1012E000D0E0C0E004C0CD3CD105D0F3D065CE0144
:1012F000DF91CF911F910895C11580E4D80708F0C0
:1013000053C0C11590E2D90708F0B7C0C11581E0FC
:10131000D80730F38D2F0E944108182FCE0199274E
:101320000E949008C12FD0E0DC2FCC27CC27DF71A2
:10133000C82BD92BDCCFC03892E5D907A8F4C0362A
:1013400082E5D80708F063C0C03492E5D90708F0F9
:1013500049C0C03282E5D80788F1CF71D0E0DC2FD8
:10136000CC27C16FD06AC3CFC03C92E5D90780F4C7
:101370008C2F8F71C03AD24508F45EC00E9441089C
:10138000C82FD0E0DC2FCC27CC27DF71D062AFCFC5
:10139000C03E82E5D80708F0A3CFDC2FCC27CC27AE
:1013A000DF71C06FD06AA3CFCE0199270E94900849
:1013B000CC27DF70C82BD92BD06A99CF2C2F26953C
:1013C000269590E2299F900111248C2F8370C1E013
:1013D000D0E002C0CC0FDD1F8A95E2F7C22BD32BE1
:1013E000DD6885CF2C2F26952695277080E2289FD3
:1013F000900111248C2F8370C1E0D0E002C0CC0F8B
:10140000DD1F8A95E2F7C22BD32BDC6870CF2C2F1F
:1014100026952695277090E2299F900111248C2F04
:101420008370C1E0D0E002C0CC0FDD1F8A95E2F7E7
:10143000C22BD32BDA685BCFC82FD0E0DC2FCC27B0
:10144000C46FD06A54CF8C2F8F710E94410855E031
:10145000D695C7955A95E1F7CF70D0E0DC2FCC2711
:10146000282F30E084FF05C044E0220F331F4A9547
:10147000E1F7C22BD32BD0693ACF8D2F8F710E9409
:101480004108182FCE0199270E949008C12FD0E063
:10149000DC2FCC27CC27DF71C82BD92B77CF8095B9
:1014A0009091D00398239093D003089580912004C5
:1014B0009091E703981301C008958F5F8770FACF6A
:1014C000CF92DF92FF920F931F93CF93DF936C0124
:1014D00000919D0380912A02082BC7E0D0E010E024
:1014E000FC2EC8010C2E02C0959587950A94E2F750
:1014F00080FD0CC02197A0F7F12C8F2DDF91CF91AB
:101500001F910F91FF90DF90CF900895B6018C2F1F
:101510000E9432090E945109019761F3EECFCF93E7
:10152000DF93EC010E94600ABE010E9432090E9412
:101530005109DF91CF910895292F983078F58630A1
:1015400068F590E036E0239F800D911D1124682FEF
:10155000677023E0969587952A95E1F7FC01EE0FD9
:10156000FF1FE80FF91FE95FFD4F50E040E080E00A
:10157000219130E0062E02C0369527950A94E2F7B5
:1015800021703327042E01C0220F0A94EAF7822B20
:101590004F5F5F4F4330510559F7089580E008953C
:1015A000292F983098F5863088F590E036E0239F13
:1015B000800D911D1124282F277041E001C0440F98
:1015C0002A95EAF723E0969587952A95E1F7FC019D
:1015D000EE0FFF1FE80FF91FE95FFD4F30E020E03D
:1015E00070E05191DF011197CB01022E02C0969558
:1015F00087950A94E2F78170819585278423852752
:101600008C932F5F3F4F2330310559F70895809316
:101610002A020895FC0124812223C1F08081918156
:101620000E948F0A92959F70963091F058F4925FC5
:101630009F70923058F4803F19F030F4883E30F4B7
:1016400081E008959A5FF4CF843FD1F380E008955C
:10165000883EB0F3813FD1F7F3CF982F92959F70DA
:1016600011F0892F94E0282F2695269511F09E5F82
:10167000822F869509F09F5F892F0895A6E0B0E03C
:10168000E4E4FBE00C940F2F49835A8349815A818B
:101690009923A1F0222391F0CA010E94600A182F19
:1016A000682F89819A810E94D00A69817A81812F6D
:1016B0000E9432092696E3E00C942B2FCA010E9467
:1016C0009C0A182FF2CF9C013A9521153F4150F505
:1016D000FC01EE27F170BC0166277270AC01442753
:1016E00054709C012227387094FF0EC080E1EF2BCC
:1016F00009F480E0672B09F08062452B09F08064D3
:10170000232B89F08068089581E0EF2B09F480E0B5
:10171000672B09F08260452B09F08460232B19F0B8
:101720008860089580E00895ECE7F1E030E020E083
:10173000408151814817590751F4220F331F220F5E
:10174000331FF901E458FE4F8281938108952F5F82
:101750003F4F34962431310559F78FEF9FEF0895AD
:10176000CF93C82F809136048C1751F00E94BF068A
:1017700060933704709338048093390490933A044B
:10178000C0933604CF910895CF93C82F0E942D0B9C
:1017900091E0823009F090E0892F0E94B00BC09355
:1017A0009D03CF91089521E030E001C0220F8A957A
:1017B000EAF7209580919D0382230E94C40B08952F
:1017C0009091DF02809589238093DF02282F277074
:1017D00069F4891759F09091B00292FF07C086957D
:1017E000869586950E94D30B1092DF02089521E022
:1017F00030E001C0220F8A95EAF780919D03822B89
:101800000E94C40B0895B0E0A0E0E9E0FCE00C9475
:101810000A2FFC01EB0190913B04911101C094E06F
:101820006081718191509B01092E02C035952795E9
:101830000A94E2F7D901092E02C0AA0FBB1F0A942D
:10184000E2F76A1B7B0B71836083628173818B017A
:10185000092E02C0159507950A94E2F7D80102C037
:10186000AA0FBB1F9A95E2F76A1B7B0B73836283F7
:1018700081E80138BFEF1B072CF0802F00381105DD
:101880000CF08FE78D8321389FEF390754F1203812
:1018900031054CF5922F91959C83442319F0819545
:1018A0008D832C830E94BF062D81211103C02C81C2
:1018B0002223D9F060933C0470933D0480933E044E
:1018C00090933F04809140049BE0980F973120F45F
:1018D000080F009340041D82CDB7DEB7E8E00C94FA
:1018E000262F21E8D7CF2FE7D5CFC0903C04D0904A
:1018F0003D04E0903E04F0903F046C197D098E0990
:101900009F096436710581059105E0F2109240044B
:10191000D9CFFC01DB012281338191E821388FEF9F
:1019200038072CF0922F203831050CF09FE71296E3
:101930009C9312972081318121388FEF3807A4F0D2
:10194000203831059CF413962C931397442339F0D7
:10195000919512969C931297219513962C93118230
:10196000108213821282089521E8EDCF2FE7EBCF8A
:101970008F708A3010F4805D0895895A0895382F49
:1019800020E287FF02C031952DE24AE0832F642FC9
:101990000E94432F905D9093FD0181110BC0209315
:1019A000FC0120E22093FB0120E22093FA018AEF60
:1019B00091E00895642F0E94432F905D9093FC0165
:1019C000832F64E60E94432F882361F3805D809318
:1019D000FB01EBCF9C01860F971F37FD07C077FDFA
:1019E00004C097FF02C08FEF9FE7089577FFFDCFF8
:1019F00097FDFBCF80E090E80895EAE6F1E083E010
:101A0000DF011D928A95E9F7E6E6F1E084E0DF0167
:101A10001D928A95E9F70895CF939091DA0280910B
:101A2000D302981323C08091DB02882321F0909188
:101A3000D40289131BC08091DC02882321F090918D
:101A4000D502891313C08091DE02882321F0909182
:101A5000D70289130BC09091DD02992329F081E010
:101A60002091D602291303C080E001C081E0C82F75
:101A7000C17080FF0FC0E091C803F091C903309797
:101A800049F082E08093D9020480F581E02D89ED50
:101A900092E009959091DA0286E0E9EDF2E0DF014B
:101AA000282F1D922A95E9F79093DA02A2EDB2E071
:101AB00001900D928A95E1F781E0C11103C0911167
:101AC00001C080E08170CF9108952FE2280F283067
:101AD00078F481E090E001C0880F2A95EAF7209120
:101AE000DA02662331F0822B8093DA020E940C0D19
:101AF000089580958223F8CFCF93DF93682F81E0FC
:101B00006A3019F06D3031F480E00E940A0EDF91E6
:101B1000CF910895809154069091550626E0FC01DE
:101B2000AEE4B6E001900D922A95E1F7603E08F42C
:101B300058C026E0FC0111922A95E9F7C09154069D
:101B4000D091550646E050E0BE018EE496E00E943A
:101B5000B72F9E012E543440892B41F1C90145E035
:101B6000969587954A95E1F741E050E0BA0102C0A9
:101B7000660F771F8A95E2F7CB0160914C04709154
:101B80004D04862B972BB9016B5F7F4FE5E076956F
:101B90006795EA95E1F702C0440F551F6A95E2F791
:101BA000842B952B90934D0480934C042A5F3F4FD8
:101BB00040914B04642F70E0C9010E94EC2E481B39
:101BC000463010F4240F311D211572E0370710F054
:101BD00030E020E0225B3B4F3093550620935406C3
:101BE00096CFF6E06F9FB00111246C5F7A4F46E00C
:101BF00050E00E94A12FA2CFCF93DF93EC01FE0112
:101C00008491811103C0DF91CF9108950E947C0DD2
:101C10002196F5CFCF93382FE0915406F0915506D9
:101C2000EE54F44020914B04622F70E0CF010E94EB
:101C3000EC2E281B822F332361F066E00E94372FA1
:101C4000C82FC15010F4CF91089580E20E947C0DFE
:101C5000F8CF9F01280F311D2115324018F080E088
:101C6000F0E0E0E08E0F9F2F911D825B9B4F9093E1
:101C7000550680935406E7CF8091D00390912902B6
:101C8000892B8093F20190912802992391F0892B5E
:101C90008093F20120E084EF91E0FC013191CF01CB
:101CA00031112F5FF1E08A3F9F07B9F721111092A0
:101CB000280248E050E060E272E082EF91E00E948A
:101CC000B72F892BA9F088E0E2EFF1E0A0E2B2E0C3
:101CD00001900D928A95E1F7E091C803F091C90354
:101CE000309731F00280F381E02D82EF91E0099589
:101CF0000895E4EFF1E086E0DF011D928A95E9F7AF
:101D0000109229020E943C0E0895AAE2B0E0EBE88E
:101D1000FEE00C940F2F8FED93E02091F100FC0179
:101D20002193CF01F3E0873E9F07B9F78091E0034D
:101D3000833009F470C0B8F4813009F447C08230B0
:101D400009F4B3C08091E80083FF80C28091DF0373
:101D50009091E0039A3008F079C2E92FF0E0E95D54
:101D6000FF4C0C94652F8A3009F48EC08B3009F437
:101D70006FC0893039F78091DF03813219F7809184
:101D8000E3039091E4030297E8F68091E800877FEF
:101D90008093E8008091E80082FF38C09091F300C2
:101DA0008091F200029731F48091F100813011F0BE
:101DB000863021F48091F1008093D2038091E80075
:101DC0008B778093E8000E94B005BCCF8091DF0341
:101DD000813A09F0B7CF8091E800877F8093E800CF
:101DE0008091E3039091E403892B61F468E083ED33
:101DF00093E070E00E945C068091E8008B7780930E
:101E0000E800A0CF60E090E080E0F3CF8091DD03B8
:101E10008111C0CF97CF8091DF03813A09F092CF33
:101E20008091E3039091E403892B09F08BCF80919B
:101E3000E800877F8093E8008091E80080FFFCCF76
:101E4000809175018093F1008091E8008E77B9CF81
:101E50008091DF03813209F075CF8091E303909187
:101E6000E403892B09F06ECF8091E800877F80938F
:101E7000E8000E94B0058091E10380937501109203
:101E8000D0030E94790E5ECF8091DF03813209F08A
:101E900059CF8091E800877F8093E8000E94B005C9
:101EA0008091E2038093D1034DCF8091DF03813A8B
:101EB00009F048CF8091E800877F8093E800809107
:101EC000E80080FFFCCF8091D103BCCF803899F02F
:101ED000823809F0BBC18091E3038F70873008F02E
:101EE000B5C18093E9008091EB0085FB882780F9DC
:101EF0001092E90006C08091DB039091DC03911100
:101F000082609091E800977F9093E8008093F100C1
:101F10001092F1008091E8008E7794C1882309F433
:101F200082C1823009F092C18091E103811185C1A3
:101F30008091E3038F702FEF280F263008F086C1C1
:101F40008093E9002091EB0020FF77C1933031F4BA
:101F50008091EB0080628093EB006FC19091EB0069
:101F600090619093EB0021E030E001C0220F8A9550
:101F7000EAF72093EA001092EA008091EB00886073
:101F8000EACF811163C11091E1031F778091E300D3
:101F90008078812B8093E3008091E800877F809395
:101FA000E8000E94B0058091E80080FFFCCF80919E
:101FB000E30080688093E30082E0111183E0809366
:101FC000DD0344C18058823008F040C18091E103B4
:101FD0009091E2038C3D23E09207A1F583E08A8390
:101FE0008AE289834FB7F894DE01139620E03EE041
:101FF00051E2E32FF0E050935700E49120FF03C03B
:10200000E295EF703F5FEF708E2F90E0EA30C0F006
:10201000C7968D939D932F5F243159F74FBF8091C1
:10202000E800877F8093E8006AE270E0CE010196C5
:102030000E945C068091E8008B778093E80006C1DF
:10204000C096E7CF4091E3035091E403292F332753
:102050002330310509F444C078F52130310509F405
:102060006FC08BE390E0EBE8F4E02230310509F03B
:10207000EDC02091E800277F2093E8002091E50340
:102080003091E6038217930708F49C0140E0211584
:10209000310509F064C0411162C08091E80082FD01
:1020A000C9CF8091DD03882329F2853019F2809110
:1020B000E80083FFF2CFBECF21323105A9F12232F1
:1020C000310509F0C3C04115510509F443C0413041
:1020D000510509F0BBC089E490E0EEEFF3E0C9CF11
:1020E000992781309105C1F0009759F0029709F0C6
:1020F000ADC0E8EDF4E0E4918E2F90E0E8EDF4E07F
:1021000007C0E0E0F5E0E4918E2F90E0E0E0F5E03C
:10211000009709F49BC0ADCFEEEEF4E0E4918E2F72
:1021200090E0EEEEF4E0F4CF4115510571F041304E
:10213000510509F08BC089E090E0E6EBF4E099CF1F
:1021400082E190E0E6ECF4E094CF89E090E0EDE904
:10215000F4E08FCF84E490E0E7E4F4E08ACF80916C
:10216000DD03882309F466CF853009F463CF8091BD
:10217000E80083FD5FCF8091E80082FD8ECF8091E3
:10218000E80080FF84CF9091F3008091F200211548
:10219000310519F08830910550F041E0089709F0B9
:1021A00040E08091E8008E778093E80070CF449102
:1021B0004093F1003196215031090196E8CF8038E3
:1021C00009F044C08091E800877F8093E800809107
:1021D000DE038093F1009ECE811138C01091E1039F
:1021E0001230A0F58091E800877F8093E80010937B
:1021F000DE030E94B005112311F084E005C0809138
:10220000E30087FDFACF81E08093DD0342E061ECDB
:1022100081E00E94CF0542E261EC82E00E94CF059E
:102220008091DD0313C08091E103813079F481E076
:10223000933009F080E08093DC031092E9008091F4
:10224000E800877F8093E8000E94B0058091E80055
:1022500083FF0AC08091E800877F8093E800809127
:10226000EB0080628093EB00AA96E3E00C942B2FA6
:10227000882341F080959091290289238093290237
:102280000E943C0E0895882339F090912902982BE2
:10229000909329020E943C0E0895882321F00E9409
:1022A0004F0A0E943C0E0895882339F09091D00384
:1022B000982B9093D0030E943C0E0895882349F1F7
:1022C0009CEF980F913A80F4E4EFF1E02AEF31E0CF
:1022D0009191891303C0DF0111971C922E173F07BC
:1022E000B9F70E943C0E089590E2980F983050F490
:1022F000877091E001C0990F8A95EAF7892F0E94B3
:102300004F0AEFCF93E3980F933118F460E00E94E7
:10231000650D0895CF93DF93EC010E945E11CE010D
:102320000E94630B9E01205E31092830310510F0B8
:10233000CD2B29F40E944D11DF91CF9108950E9479
:102340003811FACFCF93C82F8823A9F08CEF8C0FC8
:10235000813A00F5E4EFF1E0DF018D91C81769F0F3
:1023600081E0AA3FB807C9F76C2F82EF91E00E9485
:10237000CB060E943C0ECF9108958191C81303C0F3
:10238000DF0111971C9281E0EA3FF807B1F70E9444
:102390003C0EEACF80E28C0F883068F4C77021E0F1
:1023A00030E001C0220FCA95EAF78091D003822B5A
:1023B0008093D003DECF83E38C0F8331E0F661E0BE
:1023C0008C2F0E94650DD7CFCF93DF93EC010E9435
:1023D000630B9E01205E31092830310510F02097F3
:1023E00041F40E9454118C2F0E94A211DF91CF91D1
:1023F00008950E944311F7CF0F931F93CF93DF935C
:10240000EC01FC0101900020E9F78F010150110956
:10241000C017D10728F0DF91CF911F910F91089538
:1024200089910E947C0DF4CF0F931F93CF93DF937C
:102430008B01EA019091DD03943061F58093E9000E
:102440008FEF9091E800815095FD06C095ED9A952B
:10245000F1F700008111F5CF8091E80085FF1AC0E7
:102460000E947F05811111C08091E80085FD06C0A2
:102470008091E8008E778093E800F2CFF801819197
:102480008F018093F100219779F78091E8008E7792
:102490008093E800DF91CF911F910F91089546E05E
:1024A00050E0BC0182E00E9414120895CF93DF93A4
:1024B000EC0148E050E0BC0181E00E94141288E089
:1024C000FE01A3EDB3E001900D928A95E1F7DF9153
:1024D000CF910895609177018091210480FF20C001
:1024E0008091760143E0849FC001112487519D4F64
:1024F000539A2BB1277F3BB138605FB7F894FC014A
:10250000649FE00DF11D1124BF0168177907D1F414
:102510005FBF8FE594E00197F1F700C000000895D8
:10252000809178019091790123E0829FF00111243C
:10253000E751FD4F8917A0F61182108212828F5F3A
:102540003396F8CFFC014191CF01E8E03BB90000A0
:1025500000C047FF2BB9440F000000C000C000C0FE
:102560002BB900C0EA9591F7D0CFEF92FF921F935D
:10257000CF93DF93EC0110E0EE24EA94F12C60910C
:102580007A01161770F00E946A129A818C8190FF6E
:102590002AC08F5F8C83DF91CF911F91FF90EF90C6
:1025A000089520917801422F410F5527551FCA01E8
:1025B0009A01220F331F280F391F27513D4F409199
:1025C0002404473908F046E970E0C7010E94512F02
:1025D000962F8C8160912304199F800D11240E94F5
:1025E0001E071F5FCCCF8150D5CFB0E0A0E0EBEF4E
:1025F000F2E10C94082F7C015B016A018091A0023A
:1026000001E010E08A3010F40AE010E0C1E0D0E010
:10261000B501C701F6010995811104C021960C1777
:102620001D072CF4CDB7DEB7EAE00C94242FCC9F25
:102630009001CD9F300D300D112490E080E045E3F6
:102640004A95F1F70000019682179307C1F7E0CF92
:1026500080913702811119C082E390E02091E3005C
:1026600027FD10C0EFE3FCE93197F1F700C000004F
:102670000197A1F782E0809337020E9460051092D3
:10268000DD0303C081E08093370281E0909137023F
:10269000913011F080E0089508950E942813882356
:1026A00059F0E091C803F091C903309729F00190E7
:1026B000F081E02D0995089580E008950F931F9310
:1026C0000E942813882329F00E94BF061F910F91B2
:1026D00008950E94BF060091A1021091A2022091CC
:1026E000A3023091A402600F711F821F931FEECFCF
:1026F00054985C9A879A8F9885E08A95F1F7000044
:1027000089B187988F9A90EA9A95F1F790E024E042
:10271000959587952A95E1F7809590958170089514
:10272000CF93DF9380912904CEE18111CDE1809197
:102730002A04D0E0882329F080912B04DEE1811166
:10274000DDE10E94781381110FC08D2F80937601F7
:10275000C0937701CD0F10927801C0937901C09397
:102760007A01DF91CF91089580E0F0CF8091290424
:10277000F90180830E94901308951092D0030E9463
:10278000790E2FEF84E39CE0215080409040E1F7E8
:1027900000C0000088E19AE00FB6F894A8958093F5
:1027A00060000FBE90936000FFCFB0E0A0E0EBEDC3
:1027B000F3E10C940A2F6C017B0164E670E088E77A
:1027C0000E944A2C8C01E601EC0CFD1C17FD0BC08D
:1027D000FE01849164E670E00E94B62C8C01219683
:1027E000CE15DF0599F70E942C2D81E0011511050A
:1027F00009F080E0CDB7DEB7E8E00C94262F809199
:10280000C4039091C703911103C091E089270895F3
:10281000882369F062E070E083E593E00E94D513BD
:10282000811103C08091C40308951092C403809164
:10283000C403EBCFCF93C091C4038091C703882317
:10284000D1F00E94BF06605A75418F4F9F4F609331
:10285000C0037093C1038093C2039093C303C1115B
:1028600008C062E070E081E593E00E94D513811119
:1028700005C0C091C4038C2FCF91089581E080934F
:10288000C403F7CFB0E0A0E0E8E4F4E10C94062F35
:1028900049015A016B017C010E9408078401A401CF
:1028A0006A2D7B2D88E090E00E94033094014A2D30
:1028B0005B2DB601C70100E20E94862F622F84E2E1
:1028C00090E00E94F12FCDB7DEB7ECE00C94222F00
:1028D000A3E0B0E0EEE6F4E10C940C2F082FF62E06
:1028E000142FE22E8091210480FF54C020912204F5
:1028F000201308C090912304961304C090912404DF
:10290000941729F09091E80292609093E802E82FE2
:10291000E695F0E0E052FE4F90819093E6028E7FC4
:10292000823009F041C0412F173908F046E99E0175
:102930002F5F3F4F6F2D802F0E941E078091210433
:1029400080FF11C02B8139814A818091780190915B
:10295000790153E0859FF0011124E751FD4F89175C
:10296000E8F00E946A1200932204F092230410936C
:102970002404EE2079F020912104609125047091C7
:102980002604302F4F2D512F809127049091280439
:102990000E9442142396E6E00C94282F4183308352
:1029A00022838F5F3396DBCF9230E9F6022FDBCFA5
:1029B000E1E2F4E043812FE0421B08F440E021E033
:1029C000628181810E9468140895E1E2F4E043810C
:1029D0002FE0420F08F44FEF21E0628181810E94D5
:1029E00068140895E1E2F4E0628121E1621B08F4D9
:1029F00060E021E0438181810E9468140895E1E252
:102A0000F4E0628121E1620F08F46FEF21E043817D
:102A100081810E9468140895E1E2F4E0818121E05F
:102A20004381628181510E9468140895E1E2F4E0DB
:102A3000818121E0438162818F5E0E946814089544
:102A400080912504882319F08150809325042091DA
:102A50002104309122044091230450912404609178
:102A600025047091260480912704909128040E94E7
:102A70004214089580912504833018F48F5F809369
:102A80002504209121043091220440912304509187
:102A9000240460912504709126048091270490916C
:102AA00028040E9442140895E1E2F4E083E0808368
:102AB00011828FEF828386E983831482A6EEB2E0CF
:102AC00012968C911297836012968C93758123E0F5
:102AD00030E04FEF56E960E0868197810E94421412
:102AE0000895B0E0A0E0E7E7F5E10C940B2F790141
:102AF000C82F880FDD0B41155105A9F0FE0193E0A9
:102B0000EE0FFF1F9A95E1F7EF5FFE4F81819281F3
:102B1000885C9D4F208130E04217530708F49A01EA
:102B2000A9010E94C42FCE010E94762ED82E8823A0
:102B3000D1F001151105B9F083E0CC0FDD1F8A95A6
:102B4000E1F7FE01EF5FFE4F438150E004171507E8
:102B500008F4A801CF5FDE4F6C817D81685C7D4FFA
:102B6000C7010E94C42F8D2DCDB7DEB7E7E00C94CE
:102B7000272FA5E0B0E0EFEBF5E10C94082F8D8353
:102B8000E62E5A01F22E68018091A0028A3028F0C8
:102B900080E02596EAE00C94242F8D818830C4F3E0
:102BA0001A8219828A836B832C8363E070E0CE01E2
:102BB00002960E94E5068983E0922901F0923C0189
:102BC00010E000E030E020E044E050E0BE016F5F44
:102BD0007F4F84E00E9471158823D1F24E2D50E082
:102BE00030E020E0B50185E00E947115882381F274
:102BF00030E020E041E050E0BE016B5F7F4F86E0B7
:102C00000E947115882321F20F2D10E0960150E0EB
:102C100040E070E060E087E00E947115BACFABE061
:102C2000B0E0E5E1F6E10C940E2F88E0E1E2F4E09B
:102C3000DE01119601900D928A95E1F78091E602EE
:102C40009091E702A091E80289879A87AB872B854C
:102C500040919C0250919D0260919E0270919F0252
:102C60003FB7F8948091CB039091CC03A091CD0312
:102C7000B091CE033FBF841B950BA60BB70B8436D8
:102C80009105A105B10510F42223C1F010E000E088
:102C900030E020E04BE050E0BE016F5F7F4F83E00B
:102CA0000E947115882369F00E94BF0660939C0200
:102CB00070939D0280939E0290939F021092E8026F
:102CC00081E02B96E4E00C942A2FA4E0B0E0EBE640
:102CD000F6E10C940E2F4091980250919902609168
:102CE0009A0270919B022FB7F8948091CB03909138
:102CF000CC03A091CD03B091CE032FBF841B950BC5
:102D0000A60BB70B11E084369105A105B10518F1AA
:102D10000E945E136E5F7F4F8F4F9F4F69837A8350
:102D20008B839C8310E000E030E020E044E050E042
:102D3000BE016F5F7F4F82E00E947115182F8823BC
:102D400051F00E94BF06609398027093990280939D
:102D50009A0290939B02812F2496E4E00C942A2FF0
:102D6000A5E0B0E0E6EBF6E10C940C2F7B0101E06E
:102D700010E09E012B5F3F4F50E040E070E060E0CC
:102D800080E00E947115182F882309F456C04091E5
:102D900094025091950260919602709197022FB71C
:102DA000F8948091CB039091CC03A091CD03B09186
:102DB000CE032FBF841B950BA60BB70B8436910552
:102DC000A105B10548F464E070E089E392E00E9457
:102DD000E5069D81891789F104E010E09E012F5FCF
:102DE0003F4F50E040E070E060E081E00E947115EC
:102DF000082F64E070E089E392E00E94E50611E0AC
:102E00009D81981310E0102331F10E94BF0660935A
:102E10009402709395028093960290939702898111
:102E20009A81AB81BC818093900290939102A09390
:102E30009202B093930211E00EC0809139029091FA
:102E40003A02A0913B02B0913C0289839A83AB8302
:102E5000BC831111E4CF8091900290919102A091D6
:102E60009202B0919302F70180839183A283B3838E
:102E7000812F2596E6E00C94282FA8E0B0E0E3E44B
:102E8000F7E10C94102F66EE7EEF90E080E00E9458
:102E90000F3060E082E090E00E94F12F60E083E07C
:102EA00090E00E94F12F10922A0260E074E184E029
:102EB00090E00E940F3060E086E090E00E94F12FE9
:102EC0006FEF87E090E00E94F12F40E050E0BA0100
:102ED00088E090E00E94033060E084E290E00E948D
:102EE000F12F60E087E190E00E94F12F60E08CE03C
:102EF00090E00E94F12F60E08DE090E00E94F12FC1
:102F000019821A821B821C821D821E821F821886D1
:102F100048E050E068E170E0CE0101960E94E12FA8
:102F200040E050E0BA0180E290E00E94033040E0CF
:102F300050E0BA018FE090E00E94033040E050E0A2
:102F4000BA0183E190E00E9403302896E2E00C94FD
:102F50002C2F9091B00292FB222720F9281779F0AC
:102F600080FB92F99093B0026091AF027091B00231
:102F700084E090E00E940F3082E00E94E00B089510
:102F800028E030E043E060E086E30E94722B089581
:102F9000ACE0B0E0EEECF7E10C940A2F4F835887D9
:102FA00069877A878B879C8780912904882399F089
:102FB0000E94C01780E50E94EA2B8AEB8A95F1F700
:102FC00000C00E94022C887899278038910509F466
:102FD00087C00E941A2C0E942813882309F46BC012
:102FE0000E94BF060091FF01109100022091010292
:102FF000309102026B017C01C01AD10AE20AF30A85
:1030000097018601083011052105310508F453C0E8
:103010006093FF017093000280930102909302027B
:1030200000913704109138042091390430913A040A
:10303000601B710B820B930B623371058105910547
:1030400080F410922D0410922C0410922F041092F0
:103050002E04109231041092300410923304109216
:103060003204109136040E947813482FBE01695F24
:103070007F4F8CE294E0112309F45FC00E94030C9F
:1030800000913604109129040E94781341E04827EA
:10309000BE01695F7F4F80E394E0011709F450C0DF
:1030A0000E94030C86E0FE013796A5E4B4E001908F
:1030B0000D928A95E1F786E0FE013796DE011196C2
:1030C00001900D928A95E1F729813A814B815C81CB
:1030D0006D817E8180E090E02C96E8E00C94262FB4
:1030E0000E94022C0E94022C7C010E94022C20E0F3
:1030F000E22AF82A0E94022C8C010E94022C20E075
:10310000022B182B0E941A2CF894B70180912C04E2
:1031100090912D040E94EA0C90932D0480932C042E
:10312000B80180912E0490912F040E94EA0C909394
:103130002F0480932E0478944ECF0E94890CA0CF48
:103140000E94890CAFCFCF93DF93D82FC62F0E9458
:10315000C0178D2F80680E94EA2B8C2F0E94EA2BCB
:103160000E941A2C8FEC92E00197F1F700C000004A
:10317000DF91CF910895682F893708F068E7609351
:10318000340491E09093350490912904992359F0E7
:103190006150811101C064E08FE00E94A31860E0DB
:1031A00080E50E94A3180895FB0180810E94BB184E
:1031B000089590913404911101C095E0282F880F53
:1031C000330BA901490F511DCA011816190614F035
:1031D00081E090E00E94BB180895CF93C82F0E9411
:1031E000C0178C2F0E94EA2B8FE792E00197F1F72E
:1031F00000C000000E94022CC82F0E941A2C9AE6E0
:103200009A95F1F700C08C2FCF910895CF93DF935B
:103210000E946A2B269A0E94C0176AE58AE30E94E0
:10322000A3182FEF80E792E0215080409040E1F713
:1032300000C0000082E00E94ED1883E00E94ED18BB
:1032400084E00E94ED1885E00E94ED1886E00E945F
:10325000ED1860E080E10E94A31880E00E94ED1864
:10326000D82F81E00E94ED18C82F0E941A2CD2346A
:1032700019F481E0C13009F080E081708093290465
:10328000882341F064E08FE00E94A31860E080E5AD
:103290000E94A318DF91CF9108951F920F920FB64D
:1032A0000F9211242F933F934F935F936F937F93CC
:1032B0008F939F93AF93BF93CF93DF93EF93FF933E
:1032C000D091E900DF708091EC00C82FC17080FDC3
:1032D000C0E81092E9008091F000877F8093F000B1
:1032E00078940E94850E1092E9008091F000886029
:1032F0008093F000CD2BCF70C093E900FF91EF9148
:10330000DF91CF91BF91AF919F918F917F916F91FD
:103310005F914F913F912F910F900FBE0F901F9093
:1033200018951F920F920FB60F9211242F933F936F
:103330004F935F936F937F938F939F93AF93BF93BD
:10334000EF93FF938091E10082FF09C08091E2003A
:1033500082FF05C08091E1008B7F8093E100809126
:10336000DA0080FF24C08091D80080FF20C08091C7
:10337000DA008E7F8093DA008091D90080FF9DC0B3
:1033800080E189BD82E189BD09B400FEFDCF81E005
:103390008093DD038091CF03811109C00E946005F5
:1033A0000E9401068091E20084608093E200809197
:1033B000E10080FF17C08091E20080FF13C0809180
:1033C000E2008E7F8093E2008091E2008061809332
:1033D000E2008091D80080628093D80019BC85E01B
:1033E0008093DD038091E10084FF2BC08091E20097
:1033F00084FF27C080E189BD82E189BD89B5982F0E
:10340000917080FFFBCF8091D8008F7D8093D80092
:103410008091E1008F7E8093E1008091E2008F7EB9
:103420008093E2008091E20081608093E2008091CD
:10343000DE03882309F447C084E08093DD03809194
:10344000DD038091E10083FF27C08091E20083FFCC
:1034500023C08091E100877F8093E10082E0809328
:10346000DD031092DE038091E1008E7F8093E10006
:103470008091E2008E7F8093E2008091E200806183
:103480008093E20042E060E080E00E94CF058091FE
:10349000F00088608093F000FF91EF91BF91AF91B1
:1034A0009F918F917F916F915F914F913F912F915C
:1034B0000F900FBE0F901F90189519BC1092DD034E
:1034C0001092CF0374CF8091E30087FD93E0909337
:1034D000DD03B5CF78941F921FB61F9211248F93EE
:1034E0009F93AF93BF938091CB039091CC03A09116
:1034F000CD03B091CE030196A11DB11D8093CB03E6
:103500009093CC03A093CD03B093CE03BF91AF9122
:103510009F918F911F901FBE1F9018959C014FB7D0
:10352000F8948091CB039091CC03A091CD03B091FE
:10353000CE034FBF821B930B08952FB7F894809151
:10354000CB039091CC03A091CD03B091CE032FBFBC
:1035500008952F923F925F926F927F928F929F92E7
:10356000AF92BF92CF92DF92EF92FF920F931F9391
:10357000CF93DF938091C703882309F4D2C0809151
:10358000C5039091C6030E948E1AC29708F4AAC080
:103590000E949D1A9093C6038093C5038EE494E025
:1035A00090935506809354060E942813882309F4AB
:1035B000D2C0C091410485E993E00E94FC0D809146
:1035C00044040E94B80C0E947C0D81E993E00E94A3
:1035D000FC0D809143040E94B80C0E947C0DCC230A
:1035E00009F4B1C08EE893E00E94FC0D8C2F829507
:1035F0008F700E94B80C0E947C0D8C2F0E94B80C1A
:103600000E947C0D8CEF8C0F853308F09CC08AE8FB
:1036100093E00E94FC0D8C2F8450990BFC01EB5A17
:10362000FC4F84910E947C0D81EB93E00E94FC0D85
:10363000809147040E94BF0C0E94FC1180914804B5
:103640000E94BF0C0E94FC1180914A040E94BF0C92
:103650000E94FC11809149040E94BF0C0E94FC1141
:1036600088EA93E00E94FC0D80913404811101C02E
:1036700085E00E94BF0C01960E94FC1182EA93E053
:103680000E94FC0D80913604811161C080E30E948C
:103690007C0D8EE993E00E94FC0D80913B0481112A
:1036A00001C084E0805D0E947C0D87EB93E00E9466
:1036B000FC0DC1E0D0E080919D03882309F449C04E
:1036C00090E00C2E02C0959587950A94E2F780FF52
:1036D00040C08C2F0E94B80C0E947C0D2196C031F6
:1036E000D10549F780914C0490914D04892BC1F587
:1036F0008091C4038823A9F00E94BF060091C003F3
:103700001091C1032091C2033091C303601B710B60
:10371000820B930B6F3F7F4F8F4F9F4710F40E9498
:10372000FF13DF91CF911F910F91FF90EF90DF90EA
:10373000CF90BF90AF909F908F907F906F905F9051
:103740003F902F90089581E00E940A0E6DCF81E393
:103750009ECF8FE5C1CF8EEB93E00E94FC0DC2CFD0
:103760008091C703882321F28091BF038111C0CFCC
:103770000E941A1420914C0430914D0421153105FA
:1037800009F4B6CF80E041E050E0082F10E01A01C4
:10379000082E02C0220C331C0A94E2F7B101622306
:1037A0007323672B11F48F5FF0CF9091BE0390FFCE
:1037B00095C0880F880F880F809370011092730155
:1037C000895F8093710183E08093740124E630E087
:1037D00047E050E06EE671E088E70E94E42C892B18
:1037E00009F086CFA80125E0440F551F2A95E1F77F
:1037F0008091BE0380FF84C0EEE9F3E080E2EF0138
:1038000019928A95E9F7ACEEB1E008EE11E080EF8D
:10381000C82E81E0D82E97E0592E772473948D918D
:10382000F80121918F01240F352F311D225B3B4F71
:10383000E82FF0E0E256FC4F90E080E0652C681A3B
:10384000872C082E01C0880C0A94EAF77901A12C74
:10385000E701B9907E01B820662D6A196770962E2F
:10386000062E000C770BDB2D01C0DD0F9A94EAF7D2
:103870007195619571096770772701C0B6946A9553
:10388000EAF7BD2A6081962E9B289082A39468E077
:10389000A612DECF019631968830910579F6CA16C8
:1038A000DB0609F0BCCF04E610E020E230E04EE990
:1038B00053E060E488E70E94052D892B09F018CFBA
:1038C000E101C095D09580914C0490914D04C8239E
:1038D000D923D0934D04C0934C040ACF8295880F0E
:1038E00080768093700198013695279536952795B7
:1038F00020937301815E809371012093740166CFE0
:10390000425B5B4F04E610E020E230E0D2CFAEE154
:10391000B0E0EDE8FCE10C940F2F4091D9025091FA
:10392000DA026091DB027091DC028091DD029091FD
:10393000DE020E94C8172093D9023093DA02409326
:10394000DB025093DC026093DD027093DE0286E0BE
:10395000E9EDF2E0DE01179601900D928A95E1F70C
:1039600086E0FE013796DE011D9601900D928A9544
:10397000E1F786E0FE013D96DE01119601900D9281
:103980008A95E1F786E0FE013196A9EDB2E001905B
:103990000D928A95E1F786E0E9EDF2E0DE015996B5
:1039A00001900D928A95E1F786E0FE017996DE019D
:1039B000179601900D928A95E1F786E0FE01379601
:1039C000DE01119601900D928A95E1F786E0FE01E5
:1039D0003196DE01539601900D928A95E1F786E0CB
:1039E000FE017396DE01179601900D928A95E1F71C
:1039F00086E0FE013796A9EDB2E001900D928A951E
:103A0000E1F786E0E9EDF2E0DE01179601900D9214
:103A10008A95E1F780916101882309F445C080917E
:103A20006601909167010E948E1A20916501281706
:103A30001906D0F580916801909169010E948E1A53
:103A40008739910588F18A859985892B9B85892BF2
:103A50009C85892B9885892B91E009F490E09093BF
:103A60006A010E94CB0710919D03882351F10E94A7
:103A70009D1A9093670180936601109269011092DC
:103A8000680180916201111105C0882369F00E94CC
:103A9000F70B0AC0212F30E0082E02C0359527957C
:103AA0000A94E2F720FFF3CF0E940C0D81112FC082
:103AB0008091D8021092D80281706E96E3E00C9447
:103AC0002B2F80916201111118C08111EDCF8091CF
:103AD0006601909167010E948E1A209163013091D6
:103AE00064012817390700F7809162010E94D30B07
:103AF0001092670110926601D7CF212F30E002C0EB
:103B0000359527958A95E2F720FFCECFE0CF81E06B
:103B100090E0D0CF0E942813882319F00E949D1AAC
:103B200008950E945E13CB0108956091210466956B
:103B300070E041E050E08DE691E00E94AA2F892BD1
:103B400019F481E08093E7020E948A1D9093E102BC
:103B50008093E0028091E80284608093E8020895F7
:103B60009091210490FF39C09170811137C092600B
:103B7000909321048091E80281608093E80266239B
:103B800091F020912104309122044091230450911E
:103B9000240460912504709126048091270490915B
:103BA00028040E94421460912104669570E041E06F
:103BB00050E08DE691E00E94AA2F892BB1F00E947F
:103BC000010781E08093E30220E0409124046091AA
:103BD0002304809122040E9468140895883010F014
:103BE0009E60C6CF880F982BC3CF0E94951DE9CF4A
:103BF000809121048695815009F487E061E00E945C
:103C0000B01D08958091210486958F5F883008F05B
:103C100081E061E00E94B01D08958091210480FF41
:103C200008C0869582588F77853018F40E94021E4E
:103C3000089561E082E00E94B01D0895A3E1B0E024
:103C4000E4E2FEE10C94052F8E01045F1F4F88E033
:103C5000D8011D928A95E9F78EECC82E81E0D82E06
:103C6000F12CE12CAA24A394B12C28ED822E21E082
:103C7000922EF60181916F018F3F09F442C0F894B2
:103C8000E82FE295EF70F0E021A18F70A50102C04E
:103C9000440F551F8A95E2F7CA01922F982B91A3E2
:103CA00092A18095892382A3789400C0E2EDF1E08F
:103CB000712C31E021912F3F09F46BC0A22FA29506
:103CC000AF70B0E090968C9190E02F7002C0959507
:103CD00087952A95E2F780FD5CC0832F782A330F01
:103CE0008E169F0639F7F601319780818F3F11F0CC
:103CF0000E942A0850EA5A95F1F7F801EE0DFF1DCF
:103D000070828FEFE81AF80AA4E0EA16F10409F0CD
:103D1000B0CF48E050E0B80185EA92E00E94B72FAA
:103D2000009741F028E0F801A5EAB2E001900D9279
:103D30002A95E1F70091AE02892B69F181E0809329
:103D40002F020E949D1A90932E0280932D02809143
:103D50002D0290912E020E948E1A059700F110E01C
:103D60000E541D4F44E050E065EA72E0C8010E9425
:103D7000B72FF12C892B51F084E0E5EAF2E0D8016D
:103D800001900D928A95E1F7FF24F39410922F028F
:103D900007C080E0A3CF80912F028111D8CFF12CF2
:103DA0000E942813E82EE091AE02882309F47DC01A
:103DB00019821A821B821C820E2F10E00E541D4F96
:103DC0008091A0028A30D8F540EB56E1BE016F5FCA
:103DD0007F4FC8010E94F512882309F455C045E6BB
:103DE00056E1BE016F5F7F4FC8010E94F512882324
:103DF00009F44AC04FE056E1BE016F5F7F4FC80132
:103E00000E94F512882309F43FC01092A00280910D
:103E1000AD0290E044E050E0BE016F5F7F4F8E54F2
:103E20009D4F0E94B72F21E020933602892BF1F499
:103E3000E12C8E2D8F296396EDE00C94212F80913B
:103E40003002909131020E948E1A843F914008F016
:103E5000BBCF80913602882359F384E0FE0131966E
:103E6000DF011D928A95E9F710923602E091AD02CA
:103E7000F0E0EE54FD4F89819A81AB81BC81808353
:103E80009183A283B383D5CF8091A0028F3F31F07D
:103E90008F5F8093A0028A3008F4B9CF0E949D1AE8
:103EA0009093310280933002D4CFF0E0EE54FD4F76
:103EB00084E0A9E3B2E001900D928A95E1F764E015
:103EC00070E089E392E00E94E506809338028090DA
:103ED0003D0290903E02A0903F02B090400280913F
:103EE000320290913302A0913402B09135028816CB
:103EF0009906AA06BB06D1F0809232029092330254
:103F0000A0923402B09235020E94281381110EC093
:103F10000E94BF06861A970AA80AB90A8092A102CF
:103F20009092A202A092A302B092A4028BE0E1E4DC
:103F3000F2E0DE01119601900D928A95E1F78091F1
:103F400041028695D0904202C0904302B090440254
:103F500000914A0210914B0210924B02112309F476
:103F600068CF10FF0BC029819091210420FF1AC057
:103F700091609093210460E00E94B01D11FF06C083
:103F800020E04B2D6C2D8D2D0E94681412FF04C073
:103F90000023A9F00E94951D13FF4BCF81E0809371
:103FA000E30247CF9E7F909321040E9401078091F6
:103FB000E80281608093E8020E946A12DFCF0E94CB
:103FC0000107EACFB0E0A0E0E8EEFFE10C94082F93
:103FD0008C01FC018481882309F4BBC021E040816D
:103FE00051816281738195810E943E0BEC01809129
:103FF0006101882309F464C0C032F2E5DF0708F0EC
:104000004BC0C11522E5D20708F0CEC0C11530E47F
:10401000D307A8F5C11580E2D80708F0F4C0C03E68
:10402000D10548F0C83ED10508F445C0C11591E05E
:10403000D90708F040C0F80184818823E1F1CE015E
:104040008D5C9109439708F4C8C00E94CB07811189
:1040500032C0F8018581882359F080916201209156
:104060009D032111D6C0882309F4DCC00E94FD0CF9
:104070000E949D1A90936901809368011CC0C1152C
:10408000E0E5DE0708F0AEC0F8018681807F09F028
:10409000BAC08D2F9927ACC0C038F2E5DF0708F011
:1040A0005DC0C03622E5D20708F07EC0C03432E5DC
:1040B000D30708F489C080916C0187FD10926C01D0
:1040C000D0934204C0934104F80180819181909380
:1040D000440480934304F580FF2009F4AAC0E090D3
:1040E000D0036E01DD248D2F8E29827211F0689429
:1040F000D1F8C6010E94940B5C01019609F4A9C095
:104100008091030290910402009721F00E94940B89
:104110000E948A11D0920402C09203028E2D8272F4
:1041200009F483C082E20E944F0AC5010E94E41193
:10413000E092D0038091DF02877059F0F801858109
:10414000882339F08091B00282FF03C082E00E9490
:10415000E00BCDB7DEB7EAE00C94242FC03C82E53B
:10416000D80708F4A8CFC03E92E5D90708F063CF7E
:1041700020916201CE018F7199272817190609F045
:104180009ACFF80185810E94B407F8018681807F6B
:10419000803509F090CF8581882379F180916C0179
:1041A000815080936C0187CF20916201CE018F7185
:1041B00099272817190609F07ECFF801858181110A
:1041C0007ACF0E94C20777CF20916201CE018F7112
:1041D00099272817190609F06ECFF80185810E94EA
:1041E000B40769CFCE0155E0969587955A95E1F7CA
:1041F0008F70992720916201ECCF0E94C2078091B5
:104200006C018F5FCECFF8018681807F09F453CF98
:1042100012CF30E0082E02C0359527950A94E2F7B8
:1042200020FF24CF0E94D30B21CFC5010E94E411AF
:1042300081CF8091030290910402C8130AC08C2F91
:104240000E94940B0E948A111092040210920302A1
:1042500071CFCE019A9581159F41B8F4CE0199276F
:10426000813D910538F0893D910588F08730EEE772
:104270009E0761F1FF2071F09E578A30910550F43E
:10428000FC01EF5CFF4C0C94652FCE01E9CF6F2D44
:104290000E94650DF8018581C631FCE7DF0709F052
:1042A00068C0882309F450C08091D0038A7A91E0D5
:1042B00009F490E09093050269E2811165E382EFD1
:1042C00091E00E94CB060E943C0E34CF8F2D0E94BD
:1042D000B00B30CF80E00E94BB1810923B042ACF75
:1042E0004091340450913B0450FB47F9569553706C
:1042F00060E070E08FE090E00E9403301BCF81E02F
:104300000E94D91817CF8FEFFBCF8AE0F9CF86EF45
:10431000F7CF9091360481E08927D9CF80913B0473
:10432000811101C084E08F5F18160CF081E08830A5
:1043300008F087E080933B04FDCE80913B0481111F
:1043400001C084E08150F0CF8091050281110FC03F
:1043500089E2E4EFF1E02AEF31E09191891303C0A3
:10436000DF0111971C922E173F07B9F7ACCF85E3F9
:10437000F0CF811172C08091D0038272FE01E052B1
:10438000F847E531F10508F078C0E55CFF4C0C9486
:10439000652F8091210480FF1EC0282F2E7F20933F
:1043A000210430912204409123045091240460910F
:1043B00025047091260480912704909128040E947E
:1043C00042140E9401078091E80281608093E80214
:1043D0000E946A12AFCE81608093210461E08695CD
:1043E0000E94B01DA7CE48EF5DE162E07EE10E9431
:1043F000FB06A0CE42E05EE168EF7DE1F8CF4CE045
:1044000055E166E175E1F3CF46E155E16CE075E118
:10441000EECF42EF54E16FEF74E1E9CF4FEF54E19B
:1044200062EF74E1E4CF48ED54E165EE74E1DFCF73
:1044300045EE54E168ED74E1DACF40E255E16AE31C
:1044400075E1D5CF4AE355E160E275E1D0CF61E097
:1044500081E0C6CF0E940D1E6DCEC3302CE7D2077F
:1044600009F487C008F058C0C1158CE7D80709F4D3
:1044700062C0C130DC4709F482C0F8018581C08187
:10448000D181882309F489C0CE010E94600AF82EE8
:10449000682FCE010E94D00ABE018F2D0E943209E2
:1044A0000E945109D82FC92FA82EF801C580B680C7
:1044B000B2943FE0B3228091DF028770F1F0EC2CE0
:1044C000CC20E1F0892F807F803451F080E28D0F85
:1044D000883098F0B11004C0892F807E803269F056
:1044E0008091B00282FF09C082E00E94E00B8091BF
:1044F000DF028770EE24E3948111E12CDC2ED2944C
:104500002FE0D222FBE0FD1508F4ACC0ED2DF0E069
:10451000E05BFF4C0C94652FCB35ECE7DE0709F42C
:104520003AC0CC35FCE7DF0761F1CA35DC4709F05A
:10453000A4CF81E02DC01092D0030E94790E3FEFEE
:1045400084E39CE0315080409040E1F700C00000DF
:1045500087E797E7909301088093000888E19AE045
:104560000FB6F894A895809360000FBE90936000FA
:10457000FFCF6FEF7FEF90E080E00E940F300E944E
:10458000BD138091B00282FB882780F991E08927D2
:104590000E94A91772CF80E0FBCFCE010E949C0A37
:1045A000F82E7ACF2C2F2F70F22EC07F19F0F294B4
:1045B00090EFF922CC20B9F0FF2069F080E28D0F56
:1045C000883010F0A11009C08091D003F82AF09231
:1045D000D0030E943C0E8D2F43C080912902F82AFF
:1045E000F0922902F6CF8D2F0E945E11FF20D1F1AB
:1045F000D05ED83010F0A11004C08F2D0E944F0A59
:1046000006C0F09480912902F822F09229020E94BB
:104610003C0E28C03C2F3F70F32EC07FC03219F0F3
:10462000F29480EFF822AA2059F081E0A81609F44C
:1046300078C0CC2009F484C0BB2009F446C0CBCF9D
:104640008091B00282FD3DC0CC20A9F1FF2039F05D
:104650008091D003F82AF092D0030E943C0E80E0B3
:104660000E94A211ED2DE850FF0B349710F40E9428
:104670004D13EE20A9F08091DF0280FD11C0F801FA
:1046800015828695869586950E94F70BC8010E9433
:10469000E21F8091DF028695869586950E94D30B56
:1046A00020E0F8014081518162817381848195818C
:1046B0000E943E0B4ECD80E00E945E11FF2091F2E1
:1046C0009CCFCC20A1F0B11004C08F2D0E945411BA
:1046D000C9CF91E0B912C6CF809128029F2D9823AF
:1046E000F91609F4BFCFF82AF0922802BBCFB11017
:1046F000B9CF8F2D0E944D11909128028F2D8923C3
:1047000029F08F2D809589238093280280910602BD
:104710009F2D982309F4A6CFF094F822F092060278
:10472000A1CFCC2029F0E5E0EB1508F49BCFCDCF4D
:10473000F4E0FB1508F496CF8F2D0E944D1192CF17
:10474000BB20D1F329E3A2120DC03FEF87EE93E027
:10475000315080409040E1F700C000008D2F0E9452
:104760005E1180CFEFE1FEE43197F1F7F5CF6C2DCC
:104770008D2F0E94650D76CF8C2F837089F5C11027
:1047800071CF4D2F429546954770440F440F8D2FA2
:104790008F70042E01C0880F0A94EAF72D2F207124
:1047A000D4FF07C02FE030E001C0220F4A95EAF79E
:1047B0002095C695C695C370C23069F050F430910B
:1047C0002A02C13029F0822B83230E94070B4ACF93
:1047D000832B822BFACF282B80912A028227F5CFB8
:1047E0008695CC2011F08C2F8170882309F43ACF64
:1047F0004D2F429546954770440F440F8D2F8F7073
:10480000042E01C0880F0A94EAF72D2F2071D4FFDF
:1048100007C02FE030E001C0220F4A95EAF720954B
:10482000C695C695C370C23069F050F430919D03AF
:10483000C13029F0822B83230E94C40B13CF832B1A
:10484000822BFACF282B80919D038227F5CFCF7042
:10485000CC2029F08C2F0E94F70B8D2F37CF8D2F76
:104860000E944D118C2F0E94D30BFCCE8D2FF2EFA6
:10487000AF16A9F1FA1570F020EFA216D1F031EFC2
:10488000A31691F0CC2009F45AC0B110A4CE8C2FFD
:104890008F7129C093EFA91649F1E4EFAE12F2CF60
:1048A0008091B00282FD2DC08C2F8F71CC20D9F267
:1048B0001AC0CC2079F0F4E0FB1508F4D3CECF7108
:1048C00081E090E001C0880FCA95EAF790919D03BE
:1048D0008927B2CF25E02B1508F4C4CEF0CF8C2F5A
:1048E0008F71C110C0CF0E94F70BBCCE80E0CC20EE
:1048F00009F4A2CFCF7181E001C0880FCA95EAF711
:104900009BCFCC2089F0CF718C2F0E94F70B809128
:10491000B00282FF07C038E0C39FC001112483604A
:104920008093DF028C2FDFCF81E00E94E00B81E0DB
:104930008B1508F097CE82E00E94E00B93CEBB204F
:1049400079F0893341F49FEFE7EEF3E09150E040D6
:10495000F040E1F701CF8FE19EE40197F1F7FCCE43
:104960008C2F8F7180CFCF93DF9380911F02807F38
:1049700009F04DC080911E02882309F448C0E091DF
:1049800020045091E703C0911A02D091190260915E
:104990001B0270911C0247E05E17C9F18E2F90E058
:1049A000E49FF0011124E851FC4F2481222391F16E
:1049B000489FF001499FF00D1124DF01A851BC4F21
:1049C00011962C9111972C1325C02C912D1322C0D8
:1049D00015962C91159721111DC012962D913C9181
:1049E000261B370B26393105A8F480911F028F70E2
:1049F000806180931F02E251FC4F80818F70806143
:104A0000808389E192E00E94E21F0E94560ADF91B2
:104A1000CF910895FC013196E770BECFA4E1B0E0DC
:104A2000E4E1F5E20C94062F8C0186E0F801DE014A
:104A30001F9601900D928A95E1F7F8018481E58037
:104A400099E1A92E92E0B92E90911D02911128C0F2
:104A5000882319F1EE20F1F0C8010E940A0BF82E0C
:104A60008823C1F087E0F801D50101900D928A9565
:104A7000E1F780911D02813031F48091190290910B
:104A80001A020E948F0A0E94B3248F2D6496ECE0D4
:104A90000C94222FC8010E94E21FFF24F394F5CF4B
:104AA000D080C18082809380F0901E0220911B02F2
:104AB00030911C02A401421B530BFF2009F4D9C002
:104AC0004639510508F092C08823F9F290911A02F4
:104AD00080911F02282F207F09F056C0C91214C0F0
:104AE00090911902D91210C0E11048C08F708061F6
:104AF00080931F0289E192E00E94E21F80911F02D1
:104B0000F8018683F12CC1CFE11038C06C2D8D2DBA
:104B10000E9441056C2D8D2D0E944105E82E8111CA
:104B2000F1CFDF86C88A8F8598890E948F0A292F46
:104B300022952F70243058F49F70223088F09923EA
:104B400099F0F8019681907F79F4FE2C9ECF2A5F30
:104B50002F70223068F0C8010E94E21FEF2CF5CFC1
:104B6000992311F0882389F3805E883070F3F3CFA6
:104B7000803F58F3815F833070F7E7CF80911F0249
:104B8000816080931F02BECFC91207C090911902A5
:104B9000D91203C0EE2009F48DC0C8010E940A0B8F
:104BA000882309F477CFEE2009F474CF80911F0297
:104BB000803288F02091190230911A0239872887B3
:104BC0009B868A8690911D029C871D868E87CE01CA
:104BD00008960E94E21F87E0F801A9E1B2E0019087
:104BE0000D928A95E1F70E94B32457CF90911F024E
:104BF000292F207F51F489E192E00E94E21F87E093
:104C0000F50111928A95E9F77DCF882309F43DCF0C
:104C100080911A028C1110C080911902D8120CC018
:104C2000E1100AC09683C8010E94E21F87E0F501E7
:104C300011928A95E9F729CFC8010E940A0B8823AF
:104C400009F428CFEE2009F425CF80911F0280328D
:104C500010F22091190230911A023A8329839C8222
:104C60008B8290911D029D831E828F83CE010196BF
:104C7000B0CF46395105D0F6882309F40ECFFE2C6B
:104C8000EE2009F407CF80911A028C1120C0809188
:104C90001902D8121CC080911F0280FD0FC0982FEE
:104CA000907F61F08683903F31F0982F907F905FE6
:104CB0008F70892B8683C8010E94E21F87E0F8016C
:104CC000A9E1B2E001900D928A95E1F7DECEC8012C
:104CD0000E940A0B81117FCF80911F028160809317
:104CE0001F02C8010E94E21FD0CEABE1B0E0EBE7AB
:104CF000F6E20C940E2F4E8B5F8B688F798F8A8F24
:104D00009B8F192F9111109229021D8A86E0FE01B6
:104D10007696DE011F9601900D928A95E1F70A8D35
:104D2000002341F021E04F85588969897A89C801BB
:104D30000E943E0B0B8B1C8B87E0FE013F96DE0131
:104D4000189601900D928A95E1F7CE0108960E947F
:104D50000E2581110CC087E0FE013896DE01119608
:104D600001900D928A95E1F78C8581110BC017E0B7
:104D7000809120049091E703891333C06B96E4E09F
:104D80000C942A2F2091E70330E0C9010196877027
:104D90009927409120044817190699F097E0929FAF
:104DA000D001939FB00D1124A851BC4FFE01319644
:104DB00001900D929A95E1F78093E7030E94560ABD
:104DC000D6CF1092D0030E94790E1092E703109272
:104DD000200487E0E9E1F2E0DF011D928A95E9F71E
:104DE000C6CF819FC001112488519C4F0E940E257F
:104DF000882321F28091200490E001968770992702
:104E000080932004B5CFA6E0B0E0E9E0F7E20C948F
:104E10000E2F0E949D1A8C0180912B0290912C02E2
:104E20008017910781F019821A820E949D1A682FBB
:104E300049815A81792F80E090E00E947526109375
:104E40002C0200932B022696E4E00C942A2F1F924A
:104E50001FB61F9211248F939F93AF93BF9380919E
:104E6000CA03811113C08091CB039091CC03A09110
:104E7000CD03B091CE034196A11DB11D8093CB030C
:104E80009093CC03A093CD03B093CE03BF91AF9189
:104E90009F918F911F901FBE1F901895CDB7DEB7C1
:104EA0002A970FB6F894DEBF0FBECDBF85B78068D6
:104EB00085BF85B7806885BF84B7877F84BF0FB6FD
:104EC000F894A895809160008861809360001092AA
:104ED00060000FBE80E890E00FB6F8948093610008
:104EE000909361000FBE89EF97E09093F10180935A
:104EF000F0010E9460050E9401068091E20084603A
:104F00008093E20078948091DD038823A1F01091D2
:104F1000E9001F709091EC00892F817090FD80E86E
:104F2000182B1092E9008091E80083FD0E94850E05
:104F30001F701093E90082E084BD93E095BD9AEF65
:104F400097BD80936E001092A1021092A20210925F
:104F5000A3021092A4020E94781380930001809112
:104F60000001882309F405C2109276018EE1809336
:104F700077010E94281381110E948A2D80910001DF
:104F80008091000194E0811190E09093AE0284E062
:104F9000891B8093AD0284EF0E942A0885EF0E944E
:104FA0002A0886EF0E942A0887EF0E942A0802ED4D
:104FB00011E0D8018D918D018F3F11F00E942A08D8
:104FC000B1E0083D1B07A9F788E0E2EBF2E0DF0162
:104FD000882E1D928A94E9F7E5EAF2E0DF011D923E
:104FE0008A95E9F790E080E00E94DB2F863E9E4F95
:104FF00011F00E943D1782E090E00E94CD2F809337
:10500000BA0284E090E00E94DB2F9093B00280937C
:10501000AF0283E090E00E94CD2F0E94070B8091A9
:105020009D030E942D0B91E0823009F090E0892FC2
:105030000E94B00B0E942813882309F49EC180E0CF
:105040008093BE0380E880934B040E94442C6BE065
:1050500070E083E492E00E94D5138823E9F1809107
:10506000BE0365E070E081FD8AC18EE392E00E949C
:10507000D513882389F16DE070E08CE292E00E9404
:10508000D513882349F10E94BF06605A75418F4F9E
:105090009F4F6093C0037093C1038093C2039093AA
:1050A000C303EEE4F4E080E092E0DF019C011D9296
:1050B00021503040E1F7F0935506E09354068FEF0E
:1050C0009FEF90934D0480934C0481E08093C7033D
:1050D0008093C4031092BF038091B10281117BC001
:1050E00090E080E00E94DB2F863E9E4F21F00E94E0
:1050F0003D170E94541588E090E00E94D52F4B0187
:105100005C0184E290E00E94CD2F282F30E040E047
:1051100050E060E070E080E090E000E20E946B2FE1
:10512000282939294A295B29209321043093220414
:105130004093230450932404609325047093260421
:1051400080932704909328048091E80283608093E1
:10515000E8022E7F89F50E94541588E090E00E94B5
:10516000D52F6B017C0184E290E00E94CD2F282F87
:1051700030E040E050E060E070E080E090E00E94CD
:105180006B2FB22FA32FF42FE52F5B019701860120
:10519000BC29A12BFE29E32BB0932104A093220468
:1051A000F0932304E093240460932504B092260432
:1051B00080932704909328040E9408070E94010707
:1051C0008091210480FF04C060E086950E94B01D9C
:1051D00081E08093B1020E942813811102C00E94D5
:1051E0008D2D0E94061980916101811105C081E019
:1051F000809361010E94FD0C0E94281381112EC032
:1052000086EB93E1909348018093470128E130E0D9
:10521000309343012093420188E390E0909346014C
:105220008093450145EE57E05093500140934F0164
:1052300030934B0120934A0190934E0180934D018E
:1052400044ED58E150935801409357013093530176
:1052500020935201909356018093550190E080E095
:105260000E94DB2F863E9E4F89F48FE090E00E94E3
:10527000D52F8B01862F8F770E94BB18001F002728
:10528000001F1370110F102B10933B040E949013FA
:1052900089E591E09093C9038093C80368E1C62E25
:1052A000D12C6624639450E1452E8091DD0312E1F8
:1052B000853009F4A4C00E941E1E2BEBE22E22E0D2
:1052C000F22E32EBA32E32E0B32E48ED842E41E0D5
:1052D000942EB4019501F7019191D9018D919D0111
:1052E000DB014D91BD018423B2E0E33CFB0709F4EF
:1052F00092C0981789F30E942813282E00E0F50128
:1053000011915F01D4018D914D011823F701319066
:105310007F01311631F13126712C55245394832DA0
:105320008521B9F02220A9F079820A830E949D1A72
:105330009C838B83F1E0FD8391E0812F852109F42B
:1053400090E09E8349815A816B817C818D810E948E
:1053500075267394550C26E07212E1CFF701319750
:1053600010830F5F083059F60E945E1399249394BE
:1053700057C08EE180937601FACD82E061CE89E359
:1053800092E075CE8091DD03843031F10E94FF13ED
:105390000E94871C1092CA0350E40FB6F894A89597
:1053A000C09260000FBE5093600083B7817F84601D
:1053B00083BF83B7816083BF7894889583B78E7FDE
:1053C00083BF0FB6F894A8958091600088618093A0
:1053D0006000109260000FBE8091DC03882379F09A
:1053E0000E941E1EE2EBF2E0A8EDB1E081919D91DA
:1053F000892309F057C182E0EA3BF807B9F78091A9
:10540000DD03853009F4BECF1092D0030E94790EDF
:105410000E944D1350CF98136ECF0E940327912CFA
:105420000E9428138091E702882309F465C08091C7
:10543000E602E0912104E695E81BE093E202823067
:1054400009F065C0E695F0E0E25BFD4FE4910E2FB8
:1054500010E095EBE92E92E1F92E8091E30288238A
:1054600061F01092E3020E948A1D9093E102809302
:10547000E0021092E5021092E4020E948A1DE0917F
:10548000E002F091E1029C012E1B3F0B2F3F3F47B2
:1054900098F52091C5022223B1F01092C502209107
:1054A000C3023091C402821B930B8F3F9F4758F475
:1054B000205D3A483093C4022093C3028091E802F1
:1054C00088608093E802A090E402B090E5020E0F9D
:1054D0001F1F1093E1020093E00280EE92E0F701BB
:1054E00009958091E4029091E502892B29F4AB287B
:1054F00019F0F1E0F093C5020E94871C882371F037
:105500000E945E130E94A91A0E941A140BC000ED9B
:1055100017E08AEBE82E86E0F82E9FCF0E94A91AAA
:105520009110F2CF0E944D139091C602891721F07D
:105530008093C6020E94BF060E942813882309F4A4
:10554000B4CE0E94BF062091CD02211146C0009129
:10555000C9021091CA022091CB023091CC024B01BA
:105560005C01801A910AA20AB30A95018401043FE2
:1055700011402105310588F16093C9027093CA0278
:105580008093CB029093CC028091C7029091C80285
:1055900001969093C8028093C7021F828E01095F13
:1055A0001F4F21E050E040E060E088E00E94B91524
:1055B000811106C08091C7029091C8020A976CF0D1
:1055C0006092CD0260922A0481E09F81911101C016
:1055D00080E080932B040E94901380912B048823F9
:1055E00009F461CE0E94BF064B015C018091CE029E
:1055F0009091CF02A091D002B091D102A501940167
:10560000281B390B4A0B5B0BDA01C9010497A10572
:10561000B10580F11F82188619861A868E01095FEE
:105620001F4F24E050E040E060E089E00E94B9159F
:105630008823C1F06F817885809130049091310486
:105640000E94EA0C909331048093300469857A8536
:1056500080913204909133040E94EA0C90933304B9
:10566000809332048092CE029092CF02A092D00218
:10567000B092D10280913504882309F412CE809132
:1056800034048F8310E000E020E0AE01495F5F4FFB
:1056900061E08AE00E94B915882309F402CE1092D5
:1056A0003504FFCD49BC19BD09B400FEFDCF809182
:1056B000D8008F7D8093D8008091E0008260809335
:1056C000E0008091E00081FDFCCF1092D0030E94A9
:1056D000790E95CE289A219A229A23982B9880E5C4
:1056E0008CBD089590917B019F3F09F071C08F3F61
:1056F00009F46EC0611144C010925706909157068C
:10570000423009F441C0433009F442C09460413052
:10571000E1F141E050E042175307E0F19091570664
:105720004031510509F452C0C0F54230510509F429
:1057300046C04830510509F446C09CB52091570633
:10574000922B9CBD90915606992319F09DB59160BE
:105750009DBD80937B01E82FE295EF70F0E031A1D1
:10576000282F2F7081E090E001C0880F2A95EAF77A
:10577000382B31A392A18095892382A381E00895DB
:1057800090E290935706BACF986090935706C1CF96
:105790009C60FBCF440F551FBECF4034510549F0EC
:1057A0004038510541F04032510539F621E020934F
:1057B0005606926001C0936090935706BECF91E069
:1057C00090935606BACF21E0209356069160F4CF0D
:1057D00080E00895CF93DF938EBD0E949D1AEC0167
:1057E0000DB407FE05C08EB590E0DF91CF9108950E
:1057F0000E949D1A8C1B9D0B8436910588F38EEFB9
:105800009FEFF3CFCF93DF931EBC0E949D1AEC0154
:105810000DB407FE05C08EB590E0DF91CF910895DD
:105820000E949D1A8C1B9D0B8436910588F38EEF88
:105830009FEFF3CF80917B018F3F29F1E82FE29515
:10584000EF70F0E041A18F7021E030E0B90102C0BB
:10585000660F771F8A95E2F7CB01942F982B91A3BF
:1058600092A1892B82A38FEF80937B018DB58E7FD0
:105870008DBD9CB580915706809589238CBD109273
:1058800057061092560608951092B9008CE0809346
:10589000B8000895B0E0A0E0E0E5FCE20C94072F2A
:1058A000B82EEB010E949D1A6C01EE24E394F12CBA
:1058B000C431D10560F025E0E22EF12CCF3FDC07AA
:1058C00031F0CE0164E170E00E94EC2E7B0184EAAD
:1058D000A82E94E8992E1092BC00A092BC000E94C1
:1058E0009D1A8C018091BC0087FF0DC08091B9008A
:1058F000887F8830F9F08091B900887F8031D1F0BD
:105900000FEF1FEF08C0C8010E948E1AE816F906B3
:1059100048F70EEF1FEFCF3FDC07E9F2C6010E9408
:105920008E1AC817D907B8F6C801CDB7DEB7EBE0B5
:105930000C94232FB092BB009092BC000E949D1A41
:105940008C018091BC0087FF0AC08091B900887FDC
:10595000883111F08034A1F610E000E0E5CFC801F5
:105960000E948E1AE816F90660F7D3CF0F931F93A3
:10597000CF93DF93EB018093BB0084E88093BC005E
:105980000E949D1A8C018091BC0087FF11C020915C
:10599000B900287F81E090E0283211F490E080E0A7
:1059A000919581959109DF91CF911F910F91089564
:1059B000CF3FDC0741F3C8010E948E1AC817D907F0
:1059C00010F78EEF9FEFEFCFB0E0A0E0EAEEFCE241
:1059D0000C940A2F6B018A017901B9010E944A2CAB
:1059E000E6010C0D1D1DC017D10711F097FF08C06F
:1059F00024E92093BC00CDB7DEB7E8E00C94262F55
:105A0000B70189910E94B62CEECFB0E0A0E0EBE0A8
:105A1000FDE20C940A2FC62F6A017901B8010E9499
:105A20004A2C97FD0CC0B8018C2F0E94B62CE601C1
:105A3000EC0CFD1CCE15DF0511F097FF08C024E922
:105A40002093BC00CDB7DEB7E8E00C94262FB80158
:105A500089910E94B62CEECF84E98093BC00089512
:105A60008EE14A9B02C08150E1F74A9BFECF089528
:105A70005A9880E28A95F1F75A9A0895FC013BE022
:105A80003A95F1F798E020E080E031E040E14A9576
:105A9000F1F7880F4A9B02C08160232742E04A95B4
:105AA000F1F7000040E14A95F1F7915079F790E164
:105AB0009A95F1F799B132E03A95F1F7000040E19B
:105AC0004A95F1F792FB992790F992272081920F3E
:105AD00090830895A1E0B0E0E0E7FDE20C940C2F84
